{
    "abi": [
        {
            "type": "function",
            "name": "disperseETH",
            "inputs": [
                {
                    "name": "recipients",
                    "type": "address[]",
                    "internalType": "address[]"
                },
                {
                    "name": "amounts",
                    "type": "uint256[]",
                    "internalType": "uint256[]"
                }
            ],
            "outputs": [],
            "stateMutability": "payable"
        },
        {
            "type": "function",
            "name": "disperseToken",
            "inputs": [
                {
                    "name": "token",
                    "type": "address",
                    "internalType": "address"
                },
                {
                    "name": "recipients",
                    "type": "address[]",
                    "internalType": "address[]"
                },
                {
                    "name": "values",
                    "type": "uint256[]",
                    "internalType": "uint256[]"
                }
            ],
            "outputs": [],
            "stateMutability": "nonpayable"
        },
        {
            "type": "function",
            "name": "disperseTokenSimple",
            "inputs": [
                {
                    "name": "token",
                    "type": "address",
                    "internalType": "address"
                },
                {
                    "name": "recipients",
                    "type": "address[]",
                    "internalType": "address[]"
                },
                {
                    "name": "values",
                    "type": "uint256[]",
                    "internalType": "uint256[]"
                }
            ],
            "outputs": [],
            "stateMutability": "nonpayable"
        },
        {
            "type": "error",
            "name": "InvalidRecipientsAndAmountsLength",
            "inputs": []
        },
        {
            "type": "error",
            "name": "TransferFailed",
            "inputs": []
        }
    ],
    "bytecode": {
        "object": "0x6080604052348015600e575f5ffd5b50610b098061001c5f395ff3fe608060405260043610610033575f3560e01c806351ba162c14610037578063bda448521461005f578063c73a2d601461007b575b5f5ffd5b348015610042575f5ffd5b5061005d6004803603810190610058919061082d565b6100a3565b005b610079600480360381019061007491906108b5565b6101f7565b005b348015610086575f5ffd5b506100a1600480360381019061009c919061082d565b61032f565b005b818180518251146100e0576040517fd46febe200000000000000000000000000000000000000000000000000000000815260040160405180910390fd5b5f5f90505f855190505f5f90505b818110156101ed578773ffffffffffffffffffffffffffffffffffffffff166323b872dd338984815181106101265761012561092b565b5b60200260200101518985815181106101415761014061092b565b5b60200260200101516040518463ffffffff1660e01b815260040161016793929190610976565b6020604051808303815f875af1158015610183573d5f5f3e3d5ffd5b505050506040513d601f19601f820116820180604052508101906101a791906109e0565b9250826101e0576040517f90b8ec1800000000000000000000000000000000000000000000000000000000815260040160405180910390fd5b80806001019150506100ee565b5050505050505050565b81818051825114610234576040517fd46febe200000000000000000000000000000000000000000000000000000000815260040160405180910390fd5b5f845190505f5f90505b81811015610327575f86828151811061025a5761025961092b565b5b602002602001015173ffffffffffffffffffffffffffffffffffffffff1686838151811061028b5761028a61092b565b5b602002602001015160405161029f90610a38565b5f6040518083038185875af1925050503d805f81146102d9576040519150601f19603f3d011682016040523d82523d5f602084013e6102de565b606091505b5050905080610319576040517f90b8ec1800000000000000000000000000000000000000000000000000000000815260040160405180910390fd5b50808060010191505061023e565b505050505050565b8181805182511461036c576040517fd46febe200000000000000000000000000000000000000000000000000000000815260040160405180910390fd5b5f5f90505f5f90505f865190505f5f90505b818110156103bb578681815181106103995761039861092b565b5b6020026020010151836103ac9190610a79565b9250808060010191505061037e565b508773ffffffffffffffffffffffffffffffffffffffff166323b872dd3330856040518463ffffffff1660e01b81526004016103f993929190610976565b6020604051808303815f875af1158015610415573d5f5f3e3d5ffd5b505050506040513d601f19601f8201168201806040525081019061043991906109e0565b925082610472576040517f90b8ec1800000000000000000000000000000000000000000000000000000000815260040160405180910390fd5b5f5f90505b81811015610574578873ffffffffffffffffffffffffffffffffffffffff1663a9059cbb8983815181106104ae576104ad61092b565b5b60200260200101518984815181106104c9576104c861092b565b5b60200260200101516040518363ffffffff1660e01b81526004016104ee929190610aac565b6020604051808303815f875af115801561050a573d5f5f3e3d5ffd5b505050506040513d601f19601f8201168201806040525081019061052e91906109e0565b935083610567576040517f90b8ec1800000000000000000000000000000000000000000000000000000000815260040160405180910390fd5b8080600101915050610477565b505050505050505050565b5f604051905090565b5f5ffd5b5f5ffd5b5f73ffffffffffffffffffffffffffffffffffffffff82169050919050565b5f6105b982610590565b9050919050565b6105c9816105af565b81146105d3575f5ffd5b50565b5f813590506105e4816105c0565b92915050565b5f5ffd5b5f601f19601f8301169050919050565b7f4e487b71000000000000000000000000000000000000000000000000000000005f52604160045260245ffd5b610634826105ee565b810181811067ffffffffffffffff82111715610653576106526105fe565b5b80604052505050565b5f61066561057f565b9050610671828261062b565b919050565b5f67ffffffffffffffff8211156106905761068f6105fe565b5b602082029050602081019050919050565b5f5ffd5b5f6106b76106b284610676565b61065c565b905080838252602082019050602084028301858111156106da576106d96106a1565b5b835b8181101561070357806106ef88826105d6565b8452602084019350506020810190506106dc565b5050509392505050565b5f82601f830112610721576107206105ea565b5b81356107318482602086016106a5565b91505092915050565b5f67ffffffffffffffff821115610754576107536105fe565b5b602082029050602081019050919050565b5f819050919050565b61077781610765565b8114610781575f5ffd5b50565b5f813590506107928161076e565b92915050565b5f6107aa6107a58461073a565b61065c565b905080838252602082019050602084028301858111156107cd576107cc6106a1565b5b835b818110156107f657806107e28882610784565b8452602084019350506020810190506107cf565b5050509392505050565b5f82601f830112610814576108136105ea565b5b8135610824848260208601610798565b91505092915050565b5f5f5f6060848603121561084457610843610588565b5b5f610851868287016105d6565b935050602084013567ffffffffffffffff8111156108725761087161058c565b5b61087e8682870161070d565b925050604084013567ffffffffffffffff81111561089f5761089e61058c565b5b6108ab86828701610800565b9150509250925092565b5f5f604083850312156108cb576108ca610588565b5b5f83013567ffffffffffffffff8111156108e8576108e761058c565b5b6108f48582860161070d565b925050602083013567ffffffffffffffff8111156109155761091461058c565b5b61092185828601610800565b9150509250929050565b7f4e487b71000000000000000000000000000000000000000000000000000000005f52603260045260245ffd5b610961816105af565b82525050565b61097081610765565b82525050565b5f6060820190506109895f830186610958565b6109966020830185610958565b6109a36040830184610967565b949350505050565b5f8115159050919050565b6109bf816109ab565b81146109c9575f5ffd5b50565b5f815190506109da816109b6565b92915050565b5f602082840312156109f5576109f4610588565b5b5f610a02848285016109cc565b91505092915050565b5f81905092915050565b50565b5f610a235f83610a0b565b9150610a2e82610a15565b5f82019050919050565b5f610a4282610a18565b9150819050919050565b7f4e487b71000000000000000000000000000000000000000000000000000000005f52601160045260245ffd5b5f610a8382610765565b9150610a8e83610765565b9250828201905080821115610aa657610aa5610a4c565b5b92915050565b5f604082019050610abf5f830185610958565b610acc6020830184610967565b939250505056fea264697066735822122054e1228939d59ca29bec7af68a24ad9853d9924a4a7279e6af0f8d5cefe9ecfb64736f6c634300081c0033",
        "linkReferences": {}
    },
    "methodIdentifiers": {
        "disperseETH(address[],uint256[])": "bda44852",
        "disperseToken(address,address[],uint256[])": "c73a2d60",
        "disperseTokenSimple(address,address[],uint256[])": "51ba162c"
    },
    "id": 24
}